{
    "contractName": "Voting",
    "abi": [
        {
            "inputs": [
                {
                    "internalType": "string",
                    "name": "name",
                    "type": "string"
                }
            ],
            "name": "addParty",
            "outputs": [],
            "stateMutability": "nonpayable",
            "type": "function"
        },
        {
            "inputs": [
                {
                    "internalType": "uint256",
                    "name": "",
                    "type": "uint256"
                }
            ],
            "name": "parties",
            "outputs": [
                {
                    "internalType": "string",
                    "name": "partyName",
                    "type": "string"
                },
                {
                    "internalType": "uint256",
                    "name": "partyId",
                    "type": "uint256"
                },
                {
                    "internalType": "uint256",
                    "name": "totalCount",
                    "type": "uint256"
                }
            ],
            "stateMutability": "view",
            "type": "function"
        },
        {
            "inputs": [
                {
                    "internalType": "uint256",
                    "name": "partyID",
                    "type": "uint256"
                }
            ],
            "name": "voting",
            "outputs": [],
            "stateMutability": "nonpayable",
            "type": "function"
        },
        {
            "inputs": [],
            "name": "winner",
            "outputs": [
                {
                    "internalType": "string",
                    "name": "",
                    "type": "string"
                }
            ],
            "stateMutability": "view",
            "type": "function"
        }
    ],
    "bytecode": "608060405234801561000f575f80fd5b506106838061001d5f395ff3fe608060405234801561000f575f80fd5b506004361061004a575f3560e01c80635df3e2711461004e57806370651a1814610063578063dfbf53ae1461008e578063fd4a77f1146100a3575b5f80fd5b61006161005c36600461035b565b6100b6565b005b610076610071366004610406565b61011f565b60405161008593929190610460565b60405180910390f35b6100966101d9565b6040516100859190610484565b6100616100b1366004610406565b610306565b5f60405180606001604052808381526020015f8054905060016100d991906104b1565b81525f60209182018190528354600181018555938152208151919260030201908190610105908261054e565b506020820151816001015560408201518160020155505050565b5f818154811061012d575f80fd5b905f5260205f2090600302015f91509050805f01805461014c906104ca565b80601f0160208091040260200160405190810160405280929190818152602001828054610178906104ca565b80156101c35780601f1061019a576101008083540402835291602001916101c3565b820191905f5260205f20905b8154815290600101906020018083116101a657829003601f168201915b5050505050908060010154908060020154905083565b60605f805f5b5f5481101561024d57825f82815481106101fb576101fb61060e565b905f5260205f209060030201600201541115610245575f81815481106102235761022361060e565b905f5260205f20906003020160020154925080600161024291906104b1565b91505b6001016101df565b505f61025a600183610622565b8154811061026a5761026a61060e565b905f5260205f2090600302015f018054610283906104ca565b80601f01602080910402602001604051908101604052809291908181526020018280546102af906104ca565b80156102fa5780601f106102d1576101008083540402835291602001916102fa565b820191905f5260205f20905b8154815290600101906020018083116102dd57829003601f168201915b50505050509250505090565b5f610312600183610622565b815481106103225761032261060e565b5f9182526020822060026003909202010180549161033f83610635565b919050555050565b634e487b7160e01b5f52604160045260245ffd5b5f6020828403121561036b575f80fd5b813567ffffffffffffffff80821115610382575f80fd5b818401915084601f830112610395575f80fd5b8135818111156103a7576103a7610347565b604051601f8201601f19908116603f011681019083821181831017156103cf576103cf610347565b816040528281528760208487010111156103e7575f80fd5b826020860160208301375f928101602001929092525095945050505050565b5f60208284031215610416575f80fd5b5035919050565b5f81518084525f5b8181101561044157602081850181015186830182015201610425565b505f602082860101526020601f19601f83011685010191505092915050565b606081525f610472606083018661041d565b60208301949094525060400152919050565b602081525f610496602083018461041d565b9392505050565b634e487b7160e01b5f52601160045260245ffd5b808201808211156104c4576104c461049d565b92915050565b600181811c908216806104de57607f821691505b6020821081036104fc57634e487b7160e01b5f52602260045260245ffd5b50919050565b601f82111561054957805f5260205f20601f840160051c810160208510156105275750805b601f840160051c820191505b81811015610546575f8155600101610533565b50505b505050565b815167ffffffffffffffff81111561056857610568610347565b61057c8161057684546104ca565b84610502565b602080601f8311600181146105af575f84156105985750858301515b5f19600386901b1c1916600185901b178555610606565b5f85815260208120601f198616915b828110156105dd578886015182559484019460019091019084016105be565b50858210156105fa57878501515f19600388901b60f8161c191681555b505060018460011b0185555b505050505050565b634e487b7160e01b5f52603260045260245ffd5b818103818111156104c4576104c461049d565b5f600182016106465761064661049d565b506001019056fea2646970667358221220c93a7b055e383376b7f7eeb6450e08f5971deb875401f49afd39497e3d98aa0b64736f6c63430008180033",
    "sourcePath": "/Users/sky/Desktop/add_to_git_sol/VotingContract/Voting.sol",
    "compiler": {
        "name": "solc",
        "version": "0.8.24+commit.e11b9ed9"
    },
    "functionHashes": {
        "addParty(string)": "5df3e271",
        "parties(uint256)": "70651a18",
        "voting(uint256)": "fd4a77f1",
        "winner()": "dfbf53ae"
    },
    "gasEstimates": {
        "creation": {
            "codeDepositCost": "333400",
            "executionCost": "372",
            "totalCost": "333772"
        },
        "external": {
            "addParty(string)": "infinite",
            "parties(uint256)": "infinite",
            "voting(uint256)": "26820",
            "winner()": "infinite"
        }
    }
}