{
    "contractName": "Crowdfunding",
    "abi": [
        {
            "inputs": [
                {
                    "internalType": "string",
                    "name": "name",
                    "type": "string"
                }
            ],
            "name": "addCampaign",
            "outputs": [],
            "stateMutability": "nonpayable",
            "type": "function"
        },
        {
            "inputs": [
                {
                    "internalType": "uint256",
                    "name": "",
                    "type": "uint256"
                }
            ],
            "name": "campaigns",
            "outputs": [
                {
                    "internalType": "uint256",
                    "name": "campId",
                    "type": "uint256"
                },
                {
                    "internalType": "string",
                    "name": "name",
                    "type": "string"
                },
                {
                    "internalType": "uint256",
                    "name": "donate_fund",
                    "type": "uint256"
                },
                {
                    "internalType": "uint256",
                    "name": "target",
                    "type": "uint256"
                }
            ],
            "stateMutability": "view",
            "type": "function"
        },
        {
            "inputs": [
                {
                    "internalType": "uint256",
                    "name": "campId",
                    "type": "uint256"
                }
            ],
            "name": "donate",
            "outputs": [],
            "stateMutability": "payable",
            "type": "function"
        },
        {
            "inputs": [
                {
                    "internalType": "address",
                    "name": "",
                    "type": "address"
                }
            ],
            "name": "owner",
            "outputs": [
                {
                    "internalType": "uint256",
                    "name": "",
                    "type": "uint256"
                }
            ],
            "stateMutability": "view",
            "type": "function"
        },
        {
            "inputs": [
                {
                    "internalType": "uint256",
                    "name": "campId",
                    "type": "uint256"
                }
            ],
            "name": "withdraw",
            "outputs": [],
            "stateMutability": "payable",
            "type": "function"
        }
    ],
    "bytecode": "608060405234801561000f575f80fd5b506107128061001d5f395ff3fe608060405260043610610049575f3560e01c8063141961bc1461004d578063202e7be4146100855780632e1a7d4d146100a6578063666e1b39146100b9578063f14faf6f146100f2575b5f80fd5b348015610058575f80fd5b5061006c6100673660046103df565b610105565b60405161007c94939291906103f6565b60405180910390f35b348015610090575f80fd5b506100a461009f36600461046c565b6101c4565b005b6100a46100b43660046103df565b610249565b3480156100c4575f80fd5b506100e46100d3366004610517565b60016020525f908152604090205481565b60405190815260200161007c565b6100a46101003660046103df565b61039b565b5f8181548110610113575f80fd5b5f918252602090912060049091020180546001820180549193509061013790610544565b80601f016020809104026020016040519081016040528092919081815260200182805461016390610544565b80156101ae5780601f10610185576101008083540402835291602001916101ae565b820191905f5260205f20905b81548152906001019060200180831161019157829003601f168201915b5050505050908060020154908060030154905084565b5f60405180608001604052805f8054905060016101e19190610590565b815260208082018590525f604083018190526103e8606090930192909252835460018181018655948352918190208351600490930201918255820151919290919082019061022f90826105f5565b506040820151816002015560608201518160030155505050565b5f6102556001836106b5565b81548110610265576102656106c8565b905f5260205f209060040201600201545f60018361028391906106b5565b81548110610293576102936106c8565b905f5260205f20906004020160030154106102e95760405162461bcd60e51b81526020600482015260126024820152711d185c99d95d081b9bdd081c995858da195960721b604482015260640160405180910390fd5b5f806102f66001846106b5565b81548110610306576103066106c8565b905f5260205f2090600402016002015f82825461032391906106b5565b909155505f90506103356001836106b5565b81548110610345576103456106c8565b5f9182526020808320600260049093020191909101543383526001918290526040832055819061037590846106b5565b81548110610385576103856106c8565b905f5260205f2090600402016002018190555050565b34805f6103a96001856106b5565b815481106103b9576103b96106c8565b905f5260205f2090600402016002015f8282546103d69190610590565b90915550505050565b5f602082840312156103ef575f80fd5b5035919050565b8481525f60206080602084015285518060808501525f5b818110156104295787810183015185820160a00152820161040d565b505f60a0828601015260a0601f19601f8301168501019250505083604083015282606083015295945050505050565b634e487b7160e01b5f52604160045260245ffd5b5f6020828403121561047c575f80fd5b813567ffffffffffffffff80821115610493575f80fd5b818401915084601f8301126104a6575f80fd5b8135818111156104b8576104b8610458565b604051601f8201601f19908116603f011681019083821181831017156104e0576104e0610458565b816040528281528760208487010111156104f8575f80fd5b826020860160208301375f928101602001929092525095945050505050565b5f60208284031215610527575f80fd5b81356001600160a01b038116811461053d575f80fd5b9392505050565b600181811c9082168061055857607f821691505b60208210810361057657634e487b7160e01b5f52602260045260245ffd5b50919050565b634e487b7160e01b5f52601160045260245ffd5b808201808211156105a3576105a361057c565b92915050565b601f8211156105f057805f5260205f20601f840160051c810160208510156105ce5750805b601f840160051c820191505b818110156105ed575f81556001016105da565b50505b505050565b815167ffffffffffffffff81111561060f5761060f610458565b6106238161061d8454610544565b846105a9565b602080601f831160018114610656575f841561063f5750858301515b5f19600386901b1c1916600185901b1785556106ad565b5f85815260208120601f198616915b8281101561068457888601518255948401946001909101908401610665565b50858210156106a157878501515f19600388901b60f8161c191681555b505060018460011b0185555b505050505050565b818103818111156105a3576105a361057c565b634e487b7160e01b5f52603260045260245ffdfea264697066735822122023ef27b6a9c31cb9dfb2588a664ba81574b4754c2eec7837004e2b33cd92f40d64736f6c63430008180033",
    "sourcePath": "/Users/sky/Desktop/add_to_git_sol/Crowdfunding/Crowdfunding.sol",
    "compiler": {
        "name": "solc",
        "version": "0.8.24+commit.e11b9ed9"
    },
    "functionHashes": {
        "addCampaign(string)": "202e7be4",
        "campaigns(uint256)": "141961bc",
        "donate(uint256)": "f14faf6f",
        "owner(address)": "666e1b39",
        "withdraw(uint256)": "2e1a7d4d"
    },
    "gasEstimates": {
        "creation": {
            "codeDepositCost": "362000",
            "executionCost": "397",
            "totalCost": "362397"
        },
        "external": {
            "addCampaign(string)": "infinite",
            "campaigns(uint256)": "infinite",
            "donate(uint256)": "infinite",
            "owner(address)": "2525",
            "withdraw(uint256)": "infinite"
        }
    }
}