{
    "contractName": "SaleContract",
    "abi": [
        {
            "inputs": [
                {
                    "internalType": "address",
                    "name": "",
                    "type": "address"
                }
            ],
            "name": "balances",
            "outputs": [
                {
                    "internalType": "uint256",
                    "name": "",
                    "type": "uint256"
                }
            ],
            "stateMutability": "view",
            "type": "function"
        },
        {
            "inputs": [],
            "name": "buyTokens",
            "outputs": [],
            "stateMutability": "payable",
            "type": "function"
        },
        {
            "inputs": [],
            "name": "totalTokensSupplied",
            "outputs": [
                {
                    "internalType": "uint256",
                    "name": "",
                    "type": "uint256"
                }
            ],
            "stateMutability": "view",
            "type": "function"
        }
    ],
    "bytecode": "608060405234801561000f575f80fd5b506101778061001d5f395ff3fe608060405260043610610033575f3560e01c806327e235e3146100375780633751789614610074578063d0febe4c14610089575b5f80fd5b348015610042575f80fd5b506100626100513660046100cf565b5f6020819052908152604090205481565b60405190815260200160405180910390f35b34801561007f575f80fd5b5061006260015481565b610091610093565b005b335f908152602081905260408120805434928392916100b3908490610110565b909155505060018054905f6100c783610129565b919050555050565b5f602082840312156100df575f80fd5b81356001600160a01b03811681146100f5575f80fd5b9392505050565b634e487b7160e01b5f52601160045260245ffd5b80820180821115610123576101236100fc565b92915050565b5f6001820161013a5761013a6100fc565b506001019056fea264697066735822122083a510a15f6383f1ac155d4e91cf33ef6191ff010c3b85bf37431d331c4fb61564736f6c63430008180033",
    "sourcePath": "/Users/sky/Desktop/add_to_git_sol/SaleContract/SaleContract.sol",
    "compiler": {
        "name": "solc",
        "version": "0.8.24+commit.e11b9ed9"
    },
    "functionHashes": {
        "balances(address)": "27e235e3",
        "buyTokens()": "d0febe4c",
        "totalTokensSupplied()": "37517896"
    },
    "gasEstimates": {
        "creation": {
            "codeDepositCost": "75000",
            "executionCost": "121",
            "totalCost": "75121"
        },
        "external": {
            "balances(address)": "2450",
            "buyTokens()": "48805",
            "totalTokensSupplied()": "2282"
        }
    }
}