{
    "contractName": "Helloworld",
    "abi": [
        {
            "inputs": [],
            "name": "helloworld",
            "outputs": [
                {
                    "internalType": "string",
                    "name": "",
                    "type": "string"
                }
            ],
            "stateMutability": "pure",
            "type": "function"
        }
    ],
    "bytecode": "608060405234801561000f575f80fd5b5060de8061001c5f395ff3fe6080604052348015600e575f80fd5b50600436106026575f3560e01c80632f2f485914602a575b5f80fd5b604080518082018252600b81526a12195b1b1bc815dbdc9b1960aa1b6020820152905160559190605e565b60405180910390f35b5f602080835283518060208501525f5b81811015608857858101830151858201604001528201606e565b505f604082860101526040601f19601f830116850101925050509291505056fea2646970667358221220795540b708fda69e36e0d2b6756966c8dd3bc6870558a0c66105fab9b37bf9d564736f6c63430008180033",
    "sourcePath": "/Users/sky/Desktop/add_to_git_sol/Helloworld/Helloworld.sol",
    "compiler": {
        "name": "solc",
        "version": "0.8.24+commit.e11b9ed9"
    },
    "functionHashes": {
        "helloworld()": "2f2f4859"
    },
    "gasEstimates": {
        "creation": {
            "codeDepositCost": "44400",
            "executionCost": "91",
            "totalCost": "44491"
        },
        "external": {
            "helloworld()": "infinite"
        }
    }
}